:020000040000FA
:100000000C946A000C9492000C9492000C94920050
:100010000C9492000C9492000C9492000C94920018
:100020000C9492000C9492000C9492000C9476081C
:100030000C9492000C9492000C9492000C949200F8
:100040000C942C080C9492000C94FA070C94D4078E
:100050000C9492000C9492000C9492000C949200D8
:100060000C9492000C9492000000000024002700E1
:100070002A0000000000250028002B0000000000DE
:1000800023002600290004040404040404040202DA
:100090000202020203030303030301020408102007
:1000A0004080010204081020010204081020000012
:1000B0000008000201000003040700000000000027
:1000C00000000E10101F1B1B1F000E11111F1B1B09
:1000D0001F00320911241FBECFEFD8E0DEBFCDBF15
:1000E00011E0A0E0B1E0E6E5FFE102C005900D926D
:1000F000A43FB107D9F723E0A4EFB1E001C01D92FE
:10010000A035B207E1F710E0CAE6D0E004C02197BD
:10011000FE010E94A80DC936D107C9F70E94120A34
:100120000C94A90F0C9400008F929F92AF92BF92F3
:10013000FF920F931F93CF93DF93F09049032BE02F
:100140002F1508F44CC020914B0308E512E0021B68
:10015000110927FD1395000F111F000F111F20918A
:100160004A03C8E8D0E0C21BD10927FDD395CC0FC4
:10017000DD1FCC0FDD1F4E010D2E000CAA08BB08A1
:100180009801012E000C440B550B281939094A0916
:100190005B09DC010E942C0D24EB30E040E050E0D4
:1001A0000E94020D820E931EA41EB51E8C169D0683
:1001B0002CF0E801801691060CF4E4012297CC0F94
:1001C000DD1F2FB7F8948F2D90E0FC01EE0FFF1F7D
:1001D000E80FF91FE456FD4FD283C1832FBFDF9193
:1001E000CF911F910F91FF90BF90AF909F908F90F4
:1001F000089596E0899FD0011124AE53BD4F90968B
:100200007C936E935F9791E091969C939197E09188
:100210002F03F091300390912E03992339F03097FA
:1002200051F0811108C08091DE020994309719F0D5
:100230005C968C91FACF0895CF92DF92EF92FF9265
:100240000F931F9396E0899FF0011124EE53FD4F09
:1002500011A2278D30A12130310551F178F02230E3
:10026000310509F451C02330310509F452C01F9102
:100270000F91FF90EF90DF90CF9008956623B9F330
:1002800061E070E00E94F9002FB7F8948091FA01C4
:100290009091FB01A091FC01B091FD012FBF8093D3
:1002A0001A0390931B03A0931C03B0931D03DFCF8D
:1002B0009FB7F894C090FA01D090FB01E090FC0148
:1002C000F090FD019FBF00911A0310911B03209134
:1002D0001C0330911D03C01AD10AE20AF30A0091EF
:1002E0002C0310912D0330E020E00C151D052E0588
:1002F0003F0550F462E070E01F910F91FF90EF9086
:10030000DF90CF900C94F9006111B1CF63E070E001
:10031000F3CF70E060E0F0CFAF92BF92CF92DF9268
:10032000EF92FF920F931F93CF93DF936C017B01AA
:100330008B01040F151FEB015E01AE18BF08C0173B
:10034000D10759F06991D601ED91FC910190F081AE
:10035000E02DC6010995892B79F7C501DF91CF9171
:100360001F910F91FF90EF90DF90CF90BF90AF90D3
:100370000895FC01538D448D252F30E0842F90E0AB
:10038000821B930B541710F0CF9608950197089590
:10039000FC01918D828D981761F0A28DAE0FBF2F59
:1003A000B11D5D968C91928D9F5F9F73928F90E0AF
:1003B00008958FEF9FEF0895FC01918D828D98171E
:1003C00031F0828DE80FF11D858D90E008958FEF5B
:1003D0009FEF0895FC01918D228D892F90E0805C24
:1003E0009F4F821B91098F73992708958FEF91E09A
:1003F0000E94EA0121E0892B09F420E0822F089570
:1004000080E090E0892B29F00E94F60181110C9484
:1004100000000895FC01A48DA80FB92FB11DA35AA7
:10042000BF4F2C91848D90E001968F739927848F14
:10043000A689B7892C93A089B1898C918370806437
:100440008C93938D848D981306C00288F389E02DD8
:1004500080818F7D80830895EF92FF920F931F9389
:10046000CF93DF93EC0181E0888F9B8D8C8D981367
:100470001AC0E889F989808185FF15C09FB7F89473
:10048000EE89FF896083E889F989808183708064BF
:1004900080839FBF81E090E0DF91CF911F910F910A
:1004A000FF90EF900895F62E0B8D10E00F5F1F4F19
:1004B0000F731127E02E8C8D8E110CC00FB607FC28
:1004C000FACFE889F989808185FFF5CFCE010E94B6
:1004D0000A02F1CFEB8DEC0FFD2FF11DE35AFF4F18
:1004E000F0829FB7F8940B8FEA89FB898081806244
:1004F000CFCFCF93DF93EC01888D8823B9F0AA8901
:10050000BB89E889F9898C9185FD03C0808186FDCE
:100510000DC00FB607FCF7CF8C9185FFF2CF80811D
:1005200085FFEDCFCE010E940A02E9CFDF91CF9186
:100530000895833081F028F4813099F08230A9F059
:1005400008958730A9F08830C9F08430B1F48091E3
:1005500080008F7D03C0809180008F778093800022
:10056000089584B58F7784BD089584B58F7DFBCFC2
:100570008091B0008F778093B00008958091B00093
:100580008F7DF9CFCF93DF93282F30E0F901E2552B
:10059000FF4F8491F901E656FF4FD491F901EA57D4
:1005A000FF4FC491CC23A1F081110E949902EC2F3E
:1005B000F0E0EE0FFF1FE458FF4FA591B491EC91CE
:1005C000ED2381E090E009F480E0DF91CF91089580
:1005D00080E090E0FACF862F0C94C2021F93CF9355
:1005E000DF93282F30E0F901E255FF4F8491F901A4
:1005F000E656FF4FD491F901EA57FF4FC491CC233F
:10060000A9F0162F81110E949902EC2FF0E0EE0F55
:10061000FF1FEE58FF4FA591B4918FB7F894EC915E
:10062000111108C0D095DE23DC938FBFDF91CF91ED
:100630001F910895DE2BF8CF862F642F0C94EE02C5
:10064000CF93DF9390E0FC01E656FF4F24918A5749
:100650009F4FFC0184918823C9F090E0880F991F77
:10066000FC01E859FF4FA591B491FC01EE58FF4FF2
:10067000C591D49161110DC09FB7F8948C912095CC
:1006800082238C938881282328839FBFDF91CF9179
:100690000895623051F49FB7F8943C91822F809571
:1006A00083238C93E8812E2BEFCF8FB7F894EC91B6
:1006B0002E2B2C938FBFEACF862F642F0C94200310
:1006C0006F927F928F929F92AF92BF92CF92DF9262
:1006D000EF92FF920F931F93CF93DF9381E080936C
:1006E0002E038FB7F8944091FA015091FB0160916D
:1006F000FC017091FD018FBF80911E0390911F033B
:10070000A0912003B0912103481B590B6A0B7B0B6E
:1007100080912A0390912B03B0E0A0E08417950705
:10072000A607B70708F01DC1C0E080912803C817CD
:1007300060F4E0912403F0912503EC0FF11D62E0D9
:1007400080810E942003CF5FF0CF712C812C912CEF
:100750005401839480912903781608F05FC0072D17
:1007600010E0E0912603F0912703E00FF11F61E014
:1007700080810E942003E0912603F0912703E00F7F
:10078000F11F60E080810E94EE02D501C401072CB8
:1007900004C0880F991FAA1FBB1F0A94D2F76C01CF
:1007A0007C01E094F094612C809128036816F8F4A1
:1007B000C62DD0E0E0912403F0912503EC0FFD1F3E
:1007C00080810E94C2022496CC0FDD1FCE53DD4FE4
:1007D000892B41F4888199818C299D29998388836B
:1007E0006394E2CF888199818E219F21F7CFE09198
:1007F0002603F0912703E00FF11F61E080810E9442
:10080000EE028091260390912703080F191F60E0E4
:10081000F80180810E94200373949CCFC2ECD2E047
:10082000FE018FEF9FEF278D30A1232B21F4148E33
:10083000968F858F11A2369622E0EE3FF20799F748
:10084000F12C96E0D92E80912803F81608F050C0BC
:10085000E12C0F2D10E0000F111F06531D4F2091AA
:100860002903E21608F042C0F801608171810E2C64
:1008700002C0769567950A94E2F7F29E90011124E2
:100880002E0D311DE2ECF2E080E0458D568D2417EF
:10089000350709F46AC08F5F36968A30B1F760FF7A
:1008A00023C0E2ECF2E090E080E0448D411117C0FB
:1008B000E0912203F0912303E20FF31F4081D89EC1
:1008C000F001D99EF00D1124EE53FD4F448F368F69
:1008D000258F10A2178E61E00E941C0105C00196B1
:1008E00036968A30910509F7E394B9CFF394ABCFEC
:1008F00080E099A19111892F2696F2E0CE3FDF0783
:10090000C1F79FB7F8944091FA015091FB016091B3
:10091000FC017091FD019FBF40931E0350931F0384
:1009200060932003709321038823D9F08091E30220
:100930008823B9F08091E1029091E202019789F455
:100940008091DE02DF91CF911F910F91FF90EF9088
:10095000DF90CF90BF90AF909F908F907F906F90DF
:10096000089510922E0380E0EDCF6170B5CF3FB7B0
:10097000F8948091F6019091F701A091F801B0915F
:10098000F90126B5A89B05C02F3F19F00196A11DBE
:10099000B11D3FBFBA2FA92F982F8827BC01CD01C9
:1009A000620F711D811D911D42E0660F771F881F28
:1009B000991F4A95D1F708958F929F92AF92BF9257
:1009C000CF92DF92EF92FF926B017C010E94B704FD
:1009D0004B015C01C114D104E104F104B9F00E949F
:1009E000B704681979098A099B09683E7340810533
:1009F000910580F321E0C21AD108E108F10888EEE0
:100A0000880E83E0981EA11CB11CE4CFFF90EF90EC
:100A1000DF90CF90BF90AF909F908F9008950895F2
:100A200090E080E008950F931F93CF938C01DC0139
:100A300014966C9181E090E00E94F40CC0E08C2F41
:100A400090E0F801248135818217930790F401909A
:100A5000F081E02D309751F41092FE01EEEFF1E0BD
:100A6000608102960E94F40CCF5FE9CFE80FF91F76
:100A7000F7CFCF911F910F910895EF92FF920F93AF
:100A80001F93CF93DF938C0181E090E00E94EC0CE8
:100A90008F3F49F41092C10260E090E080E00E9434
:100AA000F40C81E008C0D8011496ED90FC908E15EE
:100AB0001F0441F080E0DF91CF911F910F91FF90D3
:100AC000EF900895D0E0C0E0CE15DF0518F7CE0115
:100AD00002960E94EC0C90E0D801ED91FC913097C9
:100AE00069F41092FE01EEEFF1E021962081022ED2
:100AF000000C330B8217930739F3DCCFEC0FFD1F8B
:100B0000F4CF84E190E00E94940081E08093C102E0
:100B100061E090E080E00C94F40CFC010190002076
:100B2000E9F73197AF01481B590BBC0181E393E012
:100B30000C948C01FC0180819181009711F00C9440
:100B40004A0E0895CF93DF93EC0160E08E810E94FE
:100B5000EE0261E08E810E94EE0260E08E810E94D2
:100B6000EE028BE891E00197F1F7DF91CF910895C4
:100B7000CF92DF92EF92FF920F931F93CF93DF9369
:100B80006C017C0187E0E80EF11CD0E0C0E0062F8C
:100B900010E0B8010C2E02C0759567950A94E2F733
:100BA0006170F70181917F010E94EE022196C430AD
:100BB000D10579F7C601DF91CF911F910F91FF9079
:100BC000EF90DF90CF900C94A205CF92DF92EF923E
:100BD000FF920F931F93CF93DF93EC01F62E642FB8
:100BE0008C810E94EE028D818F3F19F060E00E949F
:100BF000EE020F2D10E08F8584FF25C06E0187E087
:100C0000C80ED11CF12CE12CB8010E2C02C0759538
:100C100067950A94E2F76170F60181916F010E9475
:100C2000EE02FFEFEF1AFF0A88E0E816F10461F721
:100C3000CE01DF91CF911F910F91FF90EF90DF9048
:100C4000CF900C94A205B80184E0759567958A95BC
:100C5000E1F7CE010E94B8056F2DCE01DF91CF9153
:100C60001F910F91FF90EF90DF90CF900C94B805FB
:100C700040E0682F81E393E00C94E50581E00E9459
:100C800038068BE39FE10197F1F70895CF93DF9347
:100C9000823029F4909140039860909340038093B0
:100CA00044031092450380E48093460380E18093DF
:100CB000470380E58093480361E0809135030E94FB
:100CC0002003809136038F3F19F061E00E942003DA
:100CD00061E0809137030E942003C1E3D3E09E01CD
:100CE000215333408091400384FD0BC084E090E0A9
:100CF00021962817390744F461E08E810E94200371
:100D0000EECF88E090E0F4CF8BE39DE00197F1F720
:100D100060E0809135030E94EE0260E0809137032D
:100D20000E94EE02809136038F3F19F060E00E942E
:100D3000EE028091400384FD34C063E081E393E0E0
:100D40000E94B805CBE4D6E4CE010197F1F763E049
:100D500081E393E00E94B8052197F1F763E081E316
:100D600093E00E94B80583E592E00197F1F762E015
:100D700081E393E00E94B8058091400380620E9465
:100D8000380684E0809341038CE00E9438060E947C
:100D90003E0682E08093420386E0DF91CF910C947F
:100DA000380680620E9438068BE496E40197F1F7DA
:100DB0008091400380620E94380683E592E00197AB
:100DC000F1F78091400380620E943806D5CF909160
:100DD0004403691710F06FEF690FE62FF0E0EF5C46
:100DE000FC4F9489890F80680C943806CF92DF926B
:100DF000EF92FF92CF936C0161E082E00E94E706E0
:100E000081E491E00E948D0561E083E00E94E706A5
:100E1000CAE00D2C000CEE08FF08C701B6010E94C5
:100E2000DC048EE491E00E948D05C150B1F7CF91B2
:100E3000FF90EF90DF90CF90089541E00E94E5058C
:100E400081E090E008950F931F93CF93DF93EC011F
:100E500088819981009759F02A813B8126173707AD
:100E600030F081E0DF91CF911F910F9108958B01B8
:100E70006F5F7F4F0E94D30E009759F0998388834C
:100E80001B830A832C813D81232B59F7FC0110829F
:100E9000E8CF80E0E7CFEF92FF920F931F93CF93BD
:100EA000DF93EC017B018A01BA010E9423072881AC
:100EB0003981811114C02115310519F0C9010E9431
:100EC0004A0E198218821D821C821B821A82CE0150
:100ED000DF91CF911F910F91FF90EF9008951D83A7
:100EE0000C83B701C9010E94A20FF1CFEF92FF92CC
:100EF0000F931F93CF93DF9300D0CDB7DEB78C0154
:100F000061E085E00E94E70680E591E00E948D05A2
:100F100061E086E00E94E706F801118210821382E8
:100F200012821582148250E040E06FE771E0C80140
:100F30000E944B07F80184819581049758F50E941F
:100F40006003F82E80ED8F0D8A30A0F741E06AE251
:100F500081E393E00E94E505F9821A82F801E480BA
:100F6000F580FFEFEF1AFF0AB701C8010E942307BF
:100F7000882301F3F8012081318184819581BE01AC
:100F80006F5F7F4F820F931F0E94A20FF801F582BF
:100F9000E482D0CFC8010F900F90DF91CF911F91C5
:100FA0000F91FF90EF9008951F920F920FB60F923E
:100FB00011242F933F934F935F936F937F938F935E
:100FC0009F93AF93BF93EF93FF938FEF91E00E94B6
:100FD0000A02FF91EF91BF91AF919F918F917F9105
:100FE0006F915F914F913F912F910F900FBE0F9096
:100FF0001F9018951F920F920FB60F9211242F93E6
:101000008F939F93EF93FF93E0910F02F091100263
:101010008081E0911502F091160282FD1BC0908143
:10102000809118028F5F8F7320911902821741F00F
:10103000E0911802F0E0E150FE4F958F8093180286
:10104000FF91EF919F918F912F910F900FBE0F9075
:101050001F9018958081F4CF1F920F920FB60F92B8
:1010600011242F933F938F939F93AF93BF938091BE
:10107000FA019091FB01A091FC01B091FD0130912A
:10108000F50123E0230F2D3758F50196A11DB11D61
:101090002093F5018093FA019093FB01A093FC014A
:1010A000B093FD018091F6019091F701A091F801B4
:1010B000B091F9010196A11DB11D8093F6019093A5
:1010C000F701A093F801B093F901BF91AF919F91FF
:1010D0008F913F912F910F900FBE0F901F901895F9
:1010E00026E8230F0296A11DB11DD2CF1F920F92A9
:1010F0000FB60F9211242F933F934F935F936F93EB
:101100007F938F939F93AF93BF93CF93DF93EF938F
:10111000FF938091F401C091C002D0E087FF24C00A
:1011200010928500109284008091F4018F5F80936B
:10113000F4018091F401082E000C990B8C179D0787
:1011400024F48091F4018C30C4F18091840090915A
:101150008500049680349C4908F47AC0809184000C
:1011600090918500049676C08091F401082E000CC1
:10117000990B8C179D07C4F6E091F4018E2FEE0FAA
:10118000990BFC01EE0FFF1FE80FF91FE456FD4F0E
:10119000808186FFC9CFE091F4018E2FEE0F990B6D
:1011A000FC01EE0FFF1FE80FF91FE456FD4F808191
:1011B00060E08F730E94EE02B7CF209184003091DF
:1011C0008500E091F4018E2FEE0F990BFC01EE0FDC
:1011D000FF1FE80FF91FE456FD4F81819281820FB6
:1011E000931F9093890080938800E091F4018E2FE3
:1011F000EE0F990BFC01EE0FFF1FE80FF91FE456ED
:10120000FD4F808186FF11C0E091F4018E2FEE0F1B
:10121000990BFC01EE0FFF1FE80FF91FE456FD4F7D
:10122000808161E08F730E94EE02FF91EF91DF9168
:10123000CF91BF91AF919F918F917F916F915F916E
:101240004F913F912F910F900FBE0F901F901895C7
:1012500080E49CE990938900809388008FEF8093CD
:10126000F401E3CF109202021092010288EE93E0A3
:10127000A0E0B0E08093030290930402A0930502E3
:10128000B09306028DE191E0909300028093FF01FC
:1012900085EC90E090930C0280930B0284EC90E03C
:1012A00090930E0280930D0280EC90E090931002D8
:1012B00080930F0281EC90E09093120280931102D0
:1012C00082EC90E0909314028093130286EC90E0FD
:1012D0009093160280931502109218021092190230
:1012E00010921A0210921B028091C0028C3008F0FA
:1012F00095C091E0980F9093C0028093490390E0CD
:10130000FC01EE0FFF1FE80FF91FE456FD4F88EBBD
:101310009BE092838183109234031092330389E31C
:1013200091E090933203809331038CE080933503F6
:101330008FEF809336038BE0809337038AE08093AE
:10134000380389E08093390388E080933A0387E08B
:1013500080933B0310923C0310923D0310923E0396
:1013600010923F031092400381E00E9446061092C3
:10137000C4021092C8021092C7021092C9028FE2F2
:1013800091E09093C3028093C202EEEDF2E08AE115
:1013900093E0108214821382158236968E179F076F
:1013A000C1F783E091E0909325038093240380E0CC
:1013B00091E0909327038093260384E08093280391
:1013C00083E08093290387E091E090932303809347
:1013D00022038AE090E090932B0380932A0384EF0A
:1013E00091E090932D0380932C0310923003109280
:1013F0002F0310921E0310921F03109220031092CD
:10140000210310922E0390E080E00E94EC0C91E00A
:10141000813009F090E09093C10208958FEF80939E
:10142000490379CFCF93DF93CDB7DEB764970FB67B
:10143000F894DEBF0FBECDBF789484B5826084BDC2
:1014400084B5816084BD85B5826085BD85B58160C8
:1014500085BD80916E00816080936E001092810046
:101460008091810082608093810080918100816001
:1014700080938100809180008160809380008091C2
:10148000B10084608093B1008091B000816080934E
:10149000B00080917A00846080937A0080917A0015
:1014A000826080937A0080917A00816080937A00D4
:1014B00080917A00806880937A001092C10082E067
:1014C0000E94460648E050E06AEC70E0CE010196CA
:1014D0000E94E30C80E40E943806CE0101966C0164
:1014E0008E01075F1F4F7C01F70161917F0181E34E
:1014F00093E00E941D07E016F106B1F748E050E0C6
:1015000062EC70E0CE0101960E94E30C88E40E9438
:101510003806F60161916F0181E393E00E941D0797
:10152000EC14FD04B1F7809149038C3008F051C0F0
:1015300061E086E00E94200380914903282F30E07B
:10154000F901EE0FFF1FE20FF31FE456FD4F9081EC
:10155000907C9660908310924A0310924B032CE08B
:10156000622F0E949C0D829FB001112430E020E088
:10157000AB01420F531FFA01EE0FFF1FE40FF51FDF
:10158000E456FD4F908196FD16C02F5F3F4F2C30E3
:10159000310571F781110FC01092800082E08093B5
:1015A00081001092850010928400B19A80916F00A2
:1015B000826080936F00E09149038E2F90E0FC01E0
:1015C000EE0FFF1FE80FF91FE456FD4F8081806486
:1015D0008083E0910F02F091100282E08083E0911D
:1015E0000B02F0910C021082E0910D02F0910E02BC
:1015F00080E1808310921702E0911302F0911402AF
:1016000086E08083E0911102F09112028081806176
:101610008083E0911102F0911202808188608083C2
:10162000E0911102F0911202808180688083E09144
:101630001102F091120280818F7D80838091C1021E
:10164000882309F440C00E94810560E084E00E9484
:10165000E70687E591E00E948D0568EE73E080E083
:1016600090E00E94DC0462E080E00E94E7061A82BB
:1016700019821C821B821E821D8240E150E060E6BE
:1016800071E0CE0101960E944B07F12C8F2D90E066
:101690002D813E8182179307F0F4E981FA8130971A
:1016A000B9F41092FE01EEEFF1E041E0608181E3D8
:1016B00093E00E94E50564E670E080E090E00E941F
:1016C000DC04F394E3CF8AE590E00E949400BDCF60
:1016D000E80FF91FEACF64EF71E080E090E00E942C
:1016E000DC04CE0101960E949A0580E0A82E80E0DD
:1016F000B82E9090C102992009F47BC00E943E064A
:1017000060E080E00E94E70660E081E393E00E94F1
:101710001D0781E791E00E948D0560E081E393E081
:101720000E941D07C8010E9476071A8219821C8236
:101730001B821E821D8269857A856115710531F0D3
:101740004D855E85CE0101960E944B07CE01019624
:101750000E943D05F82ECE0101960E949A0588EC64
:1017600090E00E94F606FF20A9F10E943E0660E08C
:1017700080E00E94E70661E081E393E00E941D079C
:1017800060E084E00E94E70680E891E00E948D0519
:1017900060E08FE00E94E70661E081E393E00E9451
:1017A0001D0768EE73E080E090E00E94DC048AE5AB
:1017B00090E00E949400C8010E949A05A114B1040F
:1017C00009F497CF0E94F601882309F492CF0E9472
:1017D00000008FCF0E943E0660E080E00E94E70696
:1017E0008AE891E00E948D0588EE93E00E94F6065B
:1017F000E2CF0E943E0660E080E00E94E70661E0E2
:1018000081E393E00E941D0760E082E00E94E7060A
:1018100089E991E00E948D0560E08FE00E94E70673
:1018200061E081E393E00E941D0781E090E00E9467
:10183000EC0CFF24F3948F3F49F061E080E00E94BC
:10184000E70684EA91E00E948D05F12C0E94600376
:10185000833229F08A32D1F7FF2009F46BC00E944D
:101860003E0660E080E00E94E70683EB91E00E9484
:101870008D05CE010F960E9476070E943E0660E01D
:1018800080E00E94E70683EC91E00E948D05C8018C
:101890000E947607CB88DC888D859E85C816D90680
:1018A00009F078C0EF84F88869857A85E114F1043D
:1018B000A1F06115710509F069C0C114D104B9F036
:1018C000F701808190E0892B09F064C01A821982A7
:1018D0001C821B821E821D8213C06115710539F0A6
:1018E000C114D10421F0FB018081811153C01A82FF
:1018F00019821C821B821E821D82E114F10431F0C8
:10190000A601B701CE0101960E944B07CE010196B8
:101910000E941305CE0101960E949A059924939482
:10192000C8010E949A05CE010F960E949A0599203F
:1019300009F444CF0E943E0660E085E00E94E7067D
:1019400061E081E393E00E941D078EE791E00E9431
:101950008D056EE781E393E00E941D078EE791E01D
:101960000E948D0560E081E393E00E941D0781E005
:101970008093C10261E090E080E00E94F40C0E943C
:10198000810584E690E00E94F60618CFC7010E9408
:10199000990F99CF0E943E0660E081E00E94E70621
:1019A00084ED91E00E948D0561E080E00E94E706F1
:1019B00082EE91E00E948D0560ED77E080E090E09E
:1019C0000E94DC04ADCFFB01DC0102C005900D924A
:1019D00041505040D8F70895F999FECF92BD81BD8E
:1019E000F89A992780B50895262FF999FECF1FBA46
:1019F00092BD81BD20BD0FB6F894FA9AF99A0FBE38
:101A000001960895052E97FB1EF400940E94190D6F
:101A100057FD07D00E946B0D07FC03D04EF40C94C9
:101A2000190D50954095309521953F4F4F4F5F4F81
:101A3000089590958095709561957F4F8F4F9F4F3A
:101A400008950E948D0DA59F900DB49F900DA49FA9
:101A5000800D911D11240895B7FF0C94210D0E9453
:101A6000210D821B930B08952F923F924F925F920C
:101A70006F927F928F929F92AF92BF92CF92DF929E
:101A8000EF92FF920F931F93CF93DF93CDB7DEB703
:101A9000CA1BDB0B0FB6F894DEBF0FBECDBF099497
:101AA0002A88398848885F846E847D848C849B84EE
:101AB000AA84B984C884DF80EE80FD800C811B81FC
:101AC000AA81B981CE0FD11D0FB6F894DEBF0FBE2B
:101AD000CDBFED010895A1E21A2EAA1BBB1BFD018B
:101AE0000DC0AA1FBB1FEE1FFF1FA217B307E407FD
:101AF000F50720F0A21BB30BE40BF50B661F771F55
:101B0000881F991F1A9469F7609570958095909534
:101B10009B01AC01BD01CF010895A29FB001B39F0D
:101B2000C001A39F700D811D1124911DB29F700DE6
:101B3000811D1124911D0895991B79E004C0991FFE
:101B4000961708F0961B881F7A95C9F78095089517
:101B5000EE0FFF1F0590F491E02D09940F931F9352
:101B6000CF93DF938230910510F482E090E0E09112
:101B70004E03F0914F0330E020E0B0E0A0E030975A
:101B800099F42115310509F44AC0281B390B24307A
:101B90003105D8F58A819B816115710589F1FB01B9
:101BA00093838283FE0111C04081518102811381A0
:101BB00048175907E0F04817590799F4109761F052
:101BC00012960C93129713961C933296CF01DF91C5
:101BD000CF911F910F91089500934E0310934F03DF
:101BE000F4CF2115310551F04217530738F0A90100
:101BF000DB019A01BD01DF01F801C1CFEF01F9CF8F
:101C000090934F0380934E03CDCFFE01E20FF31F5D
:101C1000819391932250310939832883D7CF209122
:101C20004C0330914D03232B41F420911501309149
:101C3000160130934D0320934C03209113013091F2
:101C400014012115310541F42DB73EB7409117011C
:101C500050911801241B350BE0914C03F0914D037A
:101C6000E217F307A0F42E1B3F0B2817390778F073
:101C7000AC014E5F5F4F2417350748F04E0F5F1FD2
:101C800050934D0340934C03819391939FCFF0E089
:101C9000E0E09CCFCF93DF930097E9F0FC0132970F
:101CA00013821282A0914E03B0914F03ED0130E0F8
:101CB00020E01097A1F420813181820F931F2091A1
:101CC0004C0330914D032817390709F061C0F09398
:101CD0004D03E0934C03DF91CF910895EA01CE17B5
:101CE000DF07E8F54A815B819E0141155105B1F797
:101CF000E901FB83EA8349915991C40FD51FEC1781
:101D0000FD0761F4808191810296840F951FE9019E
:101D100099838883828193819B838A83F0E0E0E0CA
:101D200012968D919C9113970097B9F52D913C9146
:101D30001197CD010296820F931F20914C03309191
:101D40004D032817390739F6309751F510924F0394
:101D500010924E03B0934D03A0934C03BCCFD3839A
:101D6000C28340815181840F951FC817D90761F440
:101D70004E5F5F4F88819981480F591F518340837F
:101D80008A819B81938382832115310509F0B0CF2D
:101D9000F0934F03E0934E039ECFFD01DC01C0CFD3
:101DA00013821282D7CFB0E0A0E0E9EDFEE00C9400
:101DB000360D8C01009751F4CB010E94AE0D8C01C1
:101DC000C801CDB7DEB7E0E10C94520DFC01E60F7F
:101DD000F71F9C0122503109E217F30708F49DC058
:101DE000D901CD91DC911197C617D70798F0C5306E
:101DF000D10530F3CE0104978617970708F3C61B69
:101E0000D70B2297C193D1936D937C93CF010E94FE
:101E10004A0ED6CF5B01AC1ABD0A4C018C0E9D1E3A
:101E2000A0914E03B0914F03512C412CF12CE12C89
:101E3000109731F580914C0390914D0388159905C9
:101E400009F05CC04616570608F058C0809113018F
:101E500090911401009741F48DB79EB740911701FE
:101E600050911801841B950BE817F90708F055C02D
:101E7000F0934D03E0934C03F90171836083A0CF8D
:101E80008D919C91119712966C90129713967C905D
:101E90001397A815B90559F56C0142E0C40ED11C81
:101EA000CA14DB0420F1AC014A195B09DA0112966D
:101EB000159780F06282738251834083D9016D93BC
:101EC0007C93E114F10471F0D7011396FC93EE9327
:101ED000129776CF22968C0F9D1FF90191838083F4
:101EE000F301EFCFF0934F03E0934E0369CF481611
:101EF000590608F42C017D01D3019ACFCB010E9431
:101F0000AE0D7C01009749F0AE01B8010E94900F20
:101F1000C8010E944A0E870153CF10E000E050CF65
:101F2000FB01DC0102C001900D9241505040D8F7F6
:101F30000895FB01DC018D91019080190110D9F306
:101F4000990B0895FB01DC0101900D920020E1F74F
:101F50000895F894FFCF0C0B0A09080706313233B5
:101F60003435363738392A302300005003800000DA
:101F70000000002C028C01B9017902EA01C801DCE1
:101F800001000000005C031C03EB02000000001DC8
:101F9000078C0110050F055B2E2E2E2E2E2E2E2EB9
:101FA0002E2E5D003D005B5F5F5F5F5D0057656CDF
:101FB000636F6D65210041726475696E6F53616670
:101FC000652076312E30002053616665204C6F63AA
:101FD0006B6564212000556E6C6F636B6564210036
:101FE0004163636573732044656E696564210020F5
:101FF0002320746F206C6F636B00202023203D2012
:102000006E657720636F646500456E746572206E3F
:10201000657720636F64653A00436F6E6669726D21
:10202000206E657720636F646500436F6465206D83
:1020300069736D617463680053616665206E6F74C7
:0A204000206C6F636B6564210000E3
:107E0000112484B714BE81FFF0D085E080938100F7
:107E100082E08093C00088E18093C10086E0809377
:107E2000C20080E18093C4008EE0C9D0259A86E02C
:107E300020E33CEF91E0309385002093840096BBD3
:107E4000B09BFECF1D9AA8958150A9F7CC24DD24C4
:107E500088248394B5E0AB2EA1E19A2EF3E0BF2EE7
:107E6000A2D0813461F49FD0082FAFD0023811F036
:107E7000013811F484E001C083E08DD089C08234E0
:107E800011F484E103C0853419F485E0A6D080C0E4
:107E9000853579F488D0E82EFF2485D0082F10E0AE
:107EA000102F00270E291F29000F111F8ED06801E7
:107EB0006FC0863521F484E090D080E0DECF843638
:107EC00009F040C070D06FD0082F6DD080E0C81688
:107ED00080E7D80618F4F601B7BEE895C0E0D1E017
:107EE00062D089930C17E1F7F0E0CF16F0E7DF06D8
:107EF00018F0F601B7BEE89568D007B600FCFDCFD4
:107F0000A601A0E0B1E02C9130E011968C91119780
:107F100090E0982F8827822B932B1296FA010C0160
:107F200087BEE89511244E5F5F4FF1E0A038BF0790
:107F300051F7F601A7BEE89507B600FCFDCF97BE46
:107F4000E89526C08437B1F42ED02DD0F82E2BD052
:107F50003CD0F601EF2C8F010F5F1F4F84911BD097
:107F6000EA94F801C1F70894C11CD11CFA94CF0C13
:107F7000D11C0EC0853739F428D08EE10CD085E9AC
:107F80000AD08FE07ACF813511F488E018D01DD067
:107F900080E101D065CF982F8091C00085FFFCCF94
:107FA0009093C60008958091C00087FFFCCF809118
:107FB000C00084FD01C0A8958091C6000895E0E648
:107FC000F0E098E1908380830895EDDF803219F02E
:107FD00088E0F5DFFFCF84E1DECF1F93182FE3DFCA
:107FE0001150E9F7F2DF1F91089580E0E8DFEE27F6
:047FF000FF270994CA
:027FFE00040479
:00000001FF
